{
  "contractName": "travellerDetails",
  "abi": [
    {
      "inputs": [
        {
          "internalType": "uint256",
          "name": "_uid",
          "type": "uint256"
        },
        {
          "internalType": "string",
          "name": "_name",
          "type": "string"
        },
        {
          "internalType": "uint256",
          "name": "_age",
          "type": "uint256"
        },
        {
          "internalType": "enum travellerDetails.Sex",
          "name": "_gender",
          "type": "uint8"
        },
        {
          "internalType": "string",
          "name": "_location",
          "type": "string"
        }
      ],
      "name": "settraveller",
      "outputs": [],
      "stateMutability": "nonpayable",
      "type": "function"
    },
    {
      "inputs": [
        {
          "internalType": "uint256",
          "name": "_uid",
          "type": "uint256"
        },
        {
          "internalType": "uint256",
          "name": "_travellerCount",
          "type": "uint256"
        }
      ],
      "name": "gettraveller",
      "outputs": [
        {
          "internalType": "uint256",
          "name": "",
          "type": "uint256"
        },
        {
          "internalType": "string",
          "name": "",
          "type": "string"
        },
        {
          "internalType": "uint256",
          "name": "",
          "type": "uint256"
        },
        {
          "internalType": "enum travellerDetails.Sex",
          "name": "",
          "type": "uint8"
        },
        {
          "internalType": "string",
          "name": "",
          "type": "string"
        }
      ],
      "stateMutability": "view",
      "type": "function",
      "constant": true
    },
    {
      "inputs": [
        {
          "internalType": "uint256",
          "name": "_uid",
          "type": "uint256"
        },
        {
          "internalType": "string",
          "name": "_locationData",
          "type": "string"
        }
      ],
      "name": "setlocationData",
      "outputs": [],
      "stateMutability": "nonpayable",
      "type": "function"
    },
    {
      "inputs": [
        {
          "internalType": "uint256",
          "name": "_uid",
          "type": "uint256"
        },
        {
          "internalType": "uint256",
          "name": "_locationCount",
          "type": "uint256"
        }
      ],
      "name": "getData",
      "outputs": [
        {
          "internalType": "string",
          "name": "",
          "type": "string"
        }
      ],
      "stateMutability": "view",
      "type": "function",
      "constant": true
    }
  ],
  "bytecode": "0x608060405234801561001057600080fd5b50610baf806100206000396000f3fe608060405234801561001057600080fd5b506004361061004c5760003560e01c80634dedc901146100515780634e4fe306146100855780639184818d146100b5578063c89a828d146100d1575b600080fd5b61006b600480360381019061006691906107bf565b6100ed565b60405161007c959493929190610874565b60405180910390f35b61009f600480360381019061009a91906107bf565b6102f0565b6040516100ac9190610852565b60405180910390f35b6100cf60048036038101906100ca9190610718565b6103a7565b005b6100eb60048036038101906100e691906106c4565b610514565b005b60006060600080606060008088815260200190815260200160002060008781526020019081526020016000206000015460008089815260200190815260200160002060008881526020019081526020016000206001016000808a81526020019081526020016000206000898152602001908152602001600020600201546000808b815260200190815260200160002060008a815260200190815260200160002060030160009054906101000a900460ff166000808c815260200190815260200160002060008b81526020019081526020016000206004018380546101d090610a0e565b80601f01602080910402602001604051908101604052809291908181526020018280546101fc90610a0e565b80156102495780601f1061021e57610100808354040283529160200191610249565b820191906000526020600020905b81548152906001019060200180831161022c57829003601f168201915b5050505050935080805461025c90610a0e565b80601f016020809104026020016040519081016040528092919081815260200182805461028890610a0e565b80156102d55780601f106102aa576101008083540402835291602001916102d5565b820191906000526020600020905b8154815290600101906020018083116102b857829003601f168201915b50505050509050945094509450945094509295509295909350565b6060600260008481526020019081526020016000206000838152602001908152602001600020805461032190610a0e565b80601f016020809104026020016040519081016040528092919081815260200182805461034d90610a0e565b801561039a5780601f1061036f5761010080835404028352916020019161039a565b820191906000526020600020905b81548152906001019060200180831161037d57829003601f168201915b5050505050905092915050565b600180600087815260200190815260200160002060008282546103ca9190610947565b925050819055506040518060a00160405280868152602001858152602001848152602001836002811115610427577f4e487b7100000000000000000000000000000000000000000000000000000000600052602160045260246000fd5b81526020018281525060008087815260200190815260200160002060006001600089815260200190815260200160002054815260200190815260200160002060008201518160000155602082015181600101908051906020019061048c92919061058f565b506040820151816002015560608201518160030160006101000a81548160ff021916908360028111156104e8577f4e487b7100000000000000000000000000000000000000000000000000000000600052602160045260246000fd5b0217905550608082015181600401908051906020019061050992919061058f565b509050505050505050565b60016003600084815260200190815260200160002060008282546105389190610947565b925050819055508060026000848152602001908152602001600020600060036000868152602001908152602001600020548152602001908152602001600020908051906020019061058a92919061058f565b505050565b82805461059b90610a0e565b90600052602060002090601f0160209004810192826105bd5760008555610604565b82601f106105d657805160ff1916838001178555610604565b82800160010185558215610604579182015b828111156106035782518255916020019190600101906105e8565b5b5090506106119190610615565b5090565b5b8082111561062e576000816000905550600101610616565b5090565b6000610645610640846108fa565b6108d5565b90508281526020810184848401111561065d57600080fd5b6106688482856109cc565b509392505050565b60008135905061067f81610b52565b92915050565b600082601f83011261069657600080fd5b81356106a6848260208601610632565b91505092915050565b6000813590506106be81610b62565b92915050565b600080604083850312156106d757600080fd5b60006106e5858286016106af565b925050602083013567ffffffffffffffff81111561070257600080fd5b61070e85828601610685565b9150509250929050565b600080600080600060a0868803121561073057600080fd5b600061073e888289016106af565b955050602086013567ffffffffffffffff81111561075b57600080fd5b61076788828901610685565b9450506040610778888289016106af565b935050606061078988828901610670565b925050608086013567ffffffffffffffff8111156107a657600080fd5b6107b288828901610685565b9150509295509295909350565b600080604083850312156107d257600080fd5b60006107e0858286016106af565b92505060206107f1858286016106af565b9150509250929050565b610804816109ba565b82525050565b60006108158261092b565b61081f8185610936565b935061082f8185602086016109db565b61083881610b2d565b840191505092915050565b61084c816109b0565b82525050565b6000602082019050818103600083015261086c818461080a565b905092915050565b600060a0820190506108896000830188610843565b818103602083015261089b818761080a565b90506108aa6040830186610843565b6108b760608301856107fb565b81810360808301526108c9818461080a565b90509695505050505050565b60006108df6108f0565b90506108eb8282610a40565b919050565b6000604051905090565b600067ffffffffffffffff82111561091557610914610afe565b5b61091e82610b2d565b9050602081019050919050565b600081519050919050565b600082825260208201905092915050565b6000610952826109b0565b915061095d836109b0565b9250827fffffffffffffffffffffffffffffffffffffffffffffffffffffffffffffffff0382111561099257610991610a71565b5b828201905092915050565b60008190506109ab82610b3e565b919050565b6000819050919050565b60006109c58261099d565b9050919050565b82818337600083830152505050565b60005b838110156109f95780820151818401526020810190506109de565b83811115610a08576000848401525b50505050565b60006002820490506001821680610a2657607f821691505b60208210811415610a3a57610a39610acf565b5b50919050565b610a4982610b2d565b810181811067ffffffffffffffff82111715610a6857610a67610afe565b5b80604052505050565b7f4e487b7100000000000000000000000000000000000000000000000000000000600052601160045260246000fd5b7f4e487b7100000000000000000000000000000000000000000000000000000000600052602160045260246000fd5b7f4e487b7100000000000000000000000000000000000000000000000000000000600052602260045260246000fd5b7f4e487b7100000000000000000000000000000000000000000000000000000000600052604160045260246000fd5b6000601f19601f8301169050919050565b60038110610b4f57610b4e610aa0565b5b50565b60038110610b5f57600080fd5b50565b610b6b816109b0565b8114610b7657600080fd5b5056fea26469706673582212201eee83fe9b7463c0fb395dfd1a66cba1ed864d9442e59ece47edd2547914461964736f6c63430008010033",
  "immutableReferences": {},
  "source": "// SPDX-License-Identifier: GPL-3.0\npragma solidity ^0.8.0;\n\ncontract travellerDetails {\n    //enum for gender\n    enum Sex {male, female, other}\n\n    // struct for saving the data of traveller\n    struct travellerData {\n        uint256 uid;\n        string name;\n        uint256 age;\n        Sex gender;\n        string location;\n    }\n\n    //mapping to retrieve traveller data stored in the blockchian\n    mapping(uint256 => mapping(uint256 => travellerData)) private pData;\n    // Iterable variable declaration for traveller data count\n    mapping(uint256 => uint256) travellerCount;\n\n    //function to set traveller data\n    function settraveller(\n        uint256 _uid,\n        string memory _name,\n        uint256 _age,\n        Sex _gender,\n        string memory _location\n    ) public {\n        travellerCount[_uid] += 1;\n        pData[_uid][travellerCount[_uid]] = travellerData(\n            _uid,\n            _name,\n            _age,\n            _gender,\n            _location\n        );\n    }\n\n    // function to retrieve data of traveller from blockchain\n    function gettraveller(uint256 _uid, uint256 _travellerCount)\n        public\n        view\n        returns (\n            uint256,\n            string memory,\n            uint256,\n            Sex,\n            string memory\n        )\n    {\n        return (\n            pData[_uid][_travellerCount].uid,\n            pData[_uid][_travellerCount].name,\n            pData[_uid][_travellerCount].age,\n            pData[_uid][_travellerCount].gender,\n            pData[_uid][_travellerCount].location\n        );\n    }\n\n    //mapping to retrieve travelled location data stored in the blockchian\n    mapping(uint256 => mapping(uint256 => string)) private locationData;\n    // Iterable variable declaration for location data count\n    mapping(uint256 => uint256) locationCount;\n\n    //function to set location data\n    function setlocationData(uint256 _uid, string memory _locationData) public {\n        locationCount[_uid] += 1;\n        locationData[_uid][locationCount[_uid]] = _locationData;\n    }\n\n    // function to retrieve data of location from blockchain\n    function getData(uint256 _uid, uint256 _locationCount)\n        public\n        view\n        returns (string memory)\n    {\n        return locationData[_uid][_locationCount];\n    }\n}\n",
  "sourcePath": "E:\\TravellerChain\\contracts\\travellerDetails.sol",
  "compiler": {
    "name": "solc",
    "version": "0.8.1+commit.df193b15.Emscripten.clang"
  },
  "schemaVersion": "3.4.7",
  "updatedAt": "2022-06-24T13:27:41.564Z",
  "networkType": "ethereum",
  "devdoc": {
    "kind": "dev",
    "methods": {},
    "version": 1
  },
  "userdoc": {
    "kind": "user",
    "methods": {},
    "version": 1
  }
}